{
  "contractName": "EHR",
  "abi": [
    {
      "anonymous": false,
      "inputs": [
        {
          "indexed": false,
          "internalType": "string",
          "name": "cid",
          "type": "string"
        },
        {
          "indexed": false,
          "internalType": "string",
          "name": "fileName",
          "type": "string"
        },
        {
          "indexed": false,
          "internalType": "uint256",
          "name": "timestamp",
          "type": "uint256"
        },
        {
          "indexed": false,
          "internalType": "uint256",
          "name": "number",
          "type": "uint256"
        }
      ],
      "name": "RecordAdded",
      "type": "event"
    },
    {
      "inputs": [
        {
          "internalType": "string",
          "name": "cid",
          "type": "string"
        },
        {
          "internalType": "string",
          "name": "fileName",
          "type": "string"
        },
        {
          "internalType": "address",
          "name": "patientAddress",
          "type": "address"
        }
      ],
      "name": "addRecord",
      "outputs": [],
      "stateMutability": "nonpayable",
      "type": "function"
    },
    {
      "inputs": [
        {
          "internalType": "address",
          "name": "patientAddress",
          "type": "address"
        }
      ],
      "name": "getRecords",
      "outputs": [
        {
          "components": [
            {
              "internalType": "string",
              "name": "cid",
              "type": "string"
            },
            {
              "internalType": "string",
              "name": "fileName",
              "type": "string"
            },
            {
              "internalType": "uint256",
              "name": "timestamp",
              "type": "uint256"
            }
          ],
          "internalType": "struct EHR.Record[]",
          "name": "",
          "type": "tuple[]"
        }
      ],
      "stateMutability": "view",
      "type": "function",
      "constant": true
    },
    {
      "inputs": [
        {
          "internalType": "address",
          "name": "patientAddress",
          "type": "address"
        }
      ],
      "name": "getRecordsCount",
      "outputs": [
        {
          "internalType": "uint256",
          "name": "",
          "type": "uint256"
        }
      ],
      "stateMutability": "view",
      "type": "function",
      "constant": true
    }
  ],
  "bytecode": "0x608060405234801561001057600080fd5b50610d89806100206000396000f3fe608060405234801561001057600080fd5b50600436106100415760003560e01c806356daecb31461004657806361d3161914610062578063a0076e8414610092575b600080fd5b610060600480360381019061005b91906106ac565b6100c2565b005b61007c60048036038101906100779190610737565b6102e0565b604051610089919061077d565b60405180910390f35b6100ac60048036038101906100a79190610737565b610328565b6040516100b9919061093f565b60405180910390f35b600160008273ffffffffffffffffffffffffffffffffffffffff1673ffffffffffffffffffffffffffffffffffffffff1681526020019081526020016000206040518060600160405280858152602001848152602001428152509080600181540180825580915050600190039060005260206000209060030201600090919091909150600082015181600001908161015a9190610b6d565b5060208201518160010190816101709190610b6d565b5060408201518160020155505060016000808373ffffffffffffffffffffffffffffffffffffffff1673ffffffffffffffffffffffffffffffffffffffff168152602001908152602001600020541061021b576000808273ffffffffffffffffffffffffffffffffffffffff1673ffffffffffffffffffffffffffffffffffffffff168152602001908152602001600020600081548092919061021290610c6e565b9190505561025f565b60016000808373ffffffffffffffffffffffffffffffffffffffff1673ffffffffffffffffffffffffffffffffffffffff1681526020019081526020016000208190555b507ff66341acda2807266948d956ccc8f16d2d464e02423d8f249592e67ffba648b88383426000808673ffffffffffffffffffffffffffffffffffffffff1673ffffffffffffffffffffffffffffffffffffffff168152602001908152602001600020546040516102d39493929190610d00565b60405180910390a1505050565b60008060008373ffffffffffffffffffffffffffffffffffffffff1673ffffffffffffffffffffffffffffffffffffffff168152602001908152602001600020549050919050565b6060600160008373ffffffffffffffffffffffffffffffffffffffff1673ffffffffffffffffffffffffffffffffffffffff168152602001908152602001600020805480602002602001604051908101604052809291908181526020016000905b828210156104e957838290600052602060002090600302016040518060600160405290816000820180546103bc90610990565b80601f01602080910402602001604051908101604052809291908181526020018280546103e890610990565b80156104355780601f1061040a57610100808354040283529160200191610435565b820191906000526020600020905b81548152906001019060200180831161041857829003601f168201915b5050505050815260200160018201805461044e90610990565b80601f016020809104026020016040519081016040528092919081815260200182805461047a90610990565b80156104c75780601f1061049c576101008083540402835291602001916104c7565b820191906000526020600020905b8154815290600101906020018083116104aa57829003601f168201915b5050505050815260200160028201548152505081526020019060010190610389565b505050509050919050565b6000604051905090565b600080fd5b600080fd5b600080fd5b600080fd5b6000601f19601f8301169050919050565b7f4e487b7100000000000000000000000000000000000000000000000000000000600052604160045260246000fd5b61055b82610512565b810181811067ffffffffffffffff8211171561057a57610579610523565b5b80604052505050565b600061058d6104f4565b90506105998282610552565b919050565b600067ffffffffffffffff8211156105b9576105b8610523565b5b6105c282610512565b9050602081019050919050565b82818337600083830152505050565b60006105f16105ec8461059e565b610583565b90508281526020810184848401111561060d5761060c61050d565b5b6106188482856105cf565b509392505050565b600082601f83011261063557610634610508565b5b81356106458482602086016105de565b91505092915050565b600073ffffffffffffffffffffffffffffffffffffffff82169050919050565b60006106798261064e565b9050919050565b6106898161066e565b811461069457600080fd5b50565b6000813590506106a681610680565b92915050565b6000806000606084860312156106c5576106c46104fe565b5b600084013567ffffffffffffffff8111156106e3576106e2610503565b5b6106ef86828701610620565b935050602084013567ffffffffffffffff8111156107105761070f610503565b5b61071c86828701610620565b925050604061072d86828701610697565b9150509250925092565b60006020828403121561074d5761074c6104fe565b5b600061075b84828501610697565b91505092915050565b6000819050919050565b61077781610764565b82525050565b6000602082019050610792600083018461076e565b92915050565b600081519050919050565b600082825260208201905092915050565b6000819050602082019050919050565b600081519050919050565b600082825260208201905092915050565b60005b838110156107fe5780820151818401526020810190506107e3565b60008484015250505050565b6000610815826107c4565b61081f81856107cf565b935061082f8185602086016107e0565b61083881610512565b840191505092915050565b61084c81610764565b82525050565b6000606083016000830151848203600086015261086f828261080a565b91505060208301518482036020860152610889828261080a565b915050604083015161089e6040860182610843565b508091505092915050565b60006108b58383610852565b905092915050565b6000602082019050919050565b60006108d582610798565b6108df81856107a3565b9350836020820285016108f1856107b4565b8060005b8581101561092d578484038952815161090e85826108a9565b9450610919836108bd565b925060208a019950506001810190506108f5565b50829750879550505050505092915050565b6000602082019050818103600083015261095981846108ca565b905092915050565b7f4e487b7100000000000000000000000000000000000000000000000000000000600052602260045260246000fd5b600060028204905060018216806109a857607f821691505b6020821081036109bb576109ba610961565b5b50919050565b60008190508160005260206000209050919050565b60006020601f8301049050919050565b600082821b905092915050565b600060088302610a237fffffffffffffffffffffffffffffffffffffffffffffffffffffffffffffffff826109e6565b610a2d86836109e6565b95508019841693508086168417925050509392505050565b6000819050919050565b6000610a6a610a65610a6084610764565b610a45565b610764565b9050919050565b6000819050919050565b610a8483610a4f565b610a98610a9082610a71565b8484546109f3565b825550505050565b600090565b610aad610aa0565b610ab8818484610a7b565b505050565b5b81811015610adc57610ad1600082610aa5565b600181019050610abe565b5050565b601f821115610b2157610af2816109c1565b610afb846109d6565b81016020851015610b0a578190505b610b1e610b16856109d6565b830182610abd565b50505b505050565b600082821c905092915050565b6000610b4460001984600802610b26565b1980831691505092915050565b6000610b5d8383610b33565b9150826002028217905092915050565b610b76826107c4565b67ffffffffffffffff811115610b8f57610b8e610523565b5b610b998254610990565b610ba4828285610ae0565b600060209050601f831160018114610bd75760008415610bc5578287015190505b610bcf8582610b51565b865550610c37565b601f198416610be5866109c1565b60005b82811015610c0d57848901518255600182019150602085019450602081019050610be8565b86831015610c2a5784890151610c26601f891682610b33565b8355505b6001600288020188555050505b505050505050565b7f4e487b7100000000000000000000000000000000000000000000000000000000600052601160045260246000fd5b6000610c7982610764565b91507fffffffffffffffffffffffffffffffffffffffffffffffffffffffffffffffff8203610cab57610caa610c3f565b5b600182019050919050565b600082825260208201905092915050565b6000610cd2826107c4565b610cdc8185610cb6565b9350610cec8185602086016107e0565b610cf581610512565b840191505092915050565b60006080820190508181036000830152610d1a8187610cc7565b90508181036020830152610d2e8186610cc7565b9050610d3d604083018561076e565b610d4a606083018461076e565b9594505050505056fea2646970667358221220d1d45389933ca0e8522843d9feb208c80a222bab39dcb197ece8a9593dc8018364736f6c63430008130033",
  "immutableReferences": {},
  "source": "// SPDX-License-Identifier: UNLICENSED\r\npragma solidity 0.8.19;\r\n\r\ncontract EHR {\r\n    struct Record {\r\n        string cid;\r\n        string fileName;\r\n        uint256 timestamp;\r\n    }\r\n\r\n    mapping(address => uint) recordCount;\r\n    mapping(address => Record[]) allRecords;\r\n\r\n    // events\r\n    event RecordAdded(string cid, string fileName, uint256 timestamp, uint number);\r\n\r\n    function addRecord(string memory cid, string memory fileName, address patientAddress) public {\r\n        allRecords[patientAddress].push(Record(cid, fileName, block.timestamp));\r\n        recordCount[patientAddress] < 1 ? recordCount[patientAddress] = 1 : recordCount[patientAddress]++;\r\n\r\n        emit RecordAdded(cid, fileName, block.timestamp, recordCount[patientAddress]);\r\n    }\r\n\r\n    function getRecords(\r\n        address patientAddress\r\n    ) public view returns (Record[] memory) {\r\n        return allRecords[patientAddress];\r\n    }\r\n\r\n    function getRecordsCount(\r\n        address patientAddress\r\n    ) public view returns (uint ) {\r\n        return recordCount[patientAddress];\r\n    }\r\n}\r\n",
  "sourcePath": "E:\\Projects\\MobiCare\\blockchain\\contracts\\EHR.sol",
  "compiler": {
    "name": "solc",
    "version": "0.8.19+commit.7dd6d404.Emscripten.clang"
  },
  "schemaVersion": "3.4.12",
  "updatedAt": "2023-06-10T12:24:57.403Z",
  "networkType": "ethereum",
  "devdoc": {
    "kind": "dev",
    "methods": {},
    "version": 1
  },
  "userdoc": {
    "kind": "user",
    "methods": {},
    "version": 1
  }
}